{
  "_format": "hh-sol-artifact-1",
  "contractName": "TheWheelOfReturns",
  "sourceName": "contracts/TheWheelOfReturns.sol",
  "abi": [
    {
      "inputs": [
        {
          "internalType": "address payable",
          "name": "_primaryBenificiaryAddress",
          "type": "address"
        },
        {
          "internalType": "address",
          "name": "_randomContractAddress",
          "type": "address"
        }
      ],
      "stateMutability": "nonpayable",
      "type": "constructor"
    },
    {
      "anonymous": false,
      "inputs": [
        {
          "indexed": false,
          "internalType": "address",
          "name": "investor",
          "type": "address"
        },
        {
          "indexed": false,
          "internalType": "uint256",
          "name": "amount",
          "type": "uint256"
        }
      ],
      "name": "OnInvest",
      "type": "event"
    },
    {
      "anonymous": false,
      "inputs": [
        {
          "indexed": false,
          "internalType": "address",
          "name": "investor",
          "type": "address"
        },
        {
          "indexed": false,
          "internalType": "uint256",
          "name": "amount",
          "type": "uint256"
        }
      ],
      "name": "OnWithdraw",
      "type": "event"
    },
    {
      "anonymous": false,
      "inputs": [
        {
          "indexed": true,
          "internalType": "address",
          "name": "previousOwner",
          "type": "address"
        },
        {
          "indexed": true,
          "internalType": "address",
          "name": "newOwner",
          "type": "address"
        }
      ],
      "name": "OwnershipTransferred",
      "type": "event"
    },
    {
      "inputs": [],
      "name": "getBalance",
      "outputs": [
        {
          "internalType": "uint256",
          "name": "",
          "type": "uint256"
        }
      ],
      "stateMutability": "view",
      "type": "function"
    },
    {
      "inputs": [],
      "name": "getContractInformation",
      "outputs": [
        {
          "internalType": "uint256",
          "name": "",
          "type": "uint256"
        },
        {
          "internalType": "uint256",
          "name": "",
          "type": "uint256"
        },
        {
          "internalType": "uint256",
          "name": "",
          "type": "uint256"
        },
        {
          "internalType": "uint256",
          "name": "",
          "type": "uint256"
        },
        {
          "internalType": "uint256",
          "name": "",
          "type": "uint256"
        }
      ],
      "stateMutability": "view",
      "type": "function"
    },
    {
      "inputs": [
        {
          "internalType": "address",
          "name": "addr",
          "type": "address"
        }
      ],
      "name": "getInvestorRefs",
      "outputs": [
        {
          "internalType": "uint256",
          "name": "",
          "type": "uint256"
        },
        {
          "internalType": "uint256",
          "name": "",
          "type": "uint256"
        },
        {
          "internalType": "uint256",
          "name": "",
          "type": "uint256"
        },
        {
          "internalType": "uint256",
          "name": "",
          "type": "uint256"
        },
        {
          "internalType": "uint256",
          "name": "",
          "type": "uint256"
        }
      ],
      "stateMutability": "view",
      "type": "function"
    },
    {
      "inputs": [
        {
          "internalType": "uint256",
          "name": "amount",
          "type": "uint256"
        },
        {
          "internalType": "uint256",
          "name": "maxDays",
          "type": "uint256"
        },
        {
          "internalType": "uint256",
          "name": "perc",
          "type": "uint256"
        }
      ],
      "name": "getTotalReturn",
      "outputs": [
        {
          "internalType": "uint256",
          "name": "",
          "type": "uint256"
        }
      ],
      "stateMutability": "pure",
      "type": "function"
    },
    {
      "inputs": [
        {
          "internalType": "address",
          "name": "userAddress",
          "type": "address"
        }
      ],
      "name": "getUserAmountOfSpins",
      "outputs": [
        {
          "internalType": "uint256",
          "name": "",
          "type": "uint256"
        }
      ],
      "stateMutability": "view",
      "type": "function"
    },
    {
      "inputs": [
        {
          "internalType": "address",
          "name": "userAddress",
          "type": "address"
        }
      ],
      "name": "getUserDividends",
      "outputs": [
        {
          "internalType": "uint256",
          "name": "",
          "type": "uint256"
        }
      ],
      "stateMutability": "view",
      "type": "function"
    },
    {
      "inputs": [
        {
          "internalType": "address",
          "name": "userAddress",
          "type": "address"
        },
        {
          "internalType": "uint256",
          "name": "index",
          "type": "uint256"
        }
      ],
      "name": "getUserSpinInfo",
      "outputs": [
        {
          "internalType": "uint256",
          "name": "maxDays",
          "type": "uint256"
        },
        {
          "internalType": "uint256",
          "name": "percent",
          "type": "uint256"
        },
        {
          "internalType": "uint256",
          "name": "amount",
          "type": "uint256"
        },
        {
          "internalType": "uint256",
          "name": "totalReturn",
          "type": "uint256"
        },
        {
          "internalType": "uint256",
          "name": "start",
          "type": "uint256"
        },
        {
          "internalType": "uint256",
          "name": "finish",
          "type": "uint256"
        }
      ],
      "stateMutability": "view",
      "type": "function"
    },
    {
      "inputs": [
        {
          "internalType": "address",
          "name": "_ref",
          "type": "address"
        }
      ],
      "name": "invest",
      "outputs": [],
      "stateMutability": "payable",
      "type": "function"
    },
    {
      "inputs": [
        {
          "internalType": "address",
          "name": "",
          "type": "address"
        }
      ],
      "name": "investors",
      "outputs": [
        {
          "internalType": "address",
          "name": "addr",
          "type": "address"
        },
        {
          "internalType": "address",
          "name": "ref",
          "type": "address"
        },
        {
          "internalType": "uint256",
          "name": "totalInvestment",
          "type": "uint256"
        },
        {
          "internalType": "uint256",
          "name": "totalWithdraw",
          "type": "uint256"
        },
        {
          "internalType": "uint256",
          "name": "totalRef",
          "type": "uint256"
        },
        {
          "internalType": "uint256",
          "name": "investmentCount",
          "type": "uint256"
        },
        {
          "internalType": "uint256",
          "name": "investmentTime",
          "type": "uint256"
        },
        {
          "internalType": "uint256",
          "name": "lastWithdrawDate",
          "type": "uint256"
        }
      ],
      "stateMutability": "view",
      "type": "function"
    },
    {
      "inputs": [],
      "name": "isSpinOpen",
      "outputs": [
        {
          "internalType": "bool",
          "name": "",
          "type": "bool"
        }
      ],
      "stateMutability": "view",
      "type": "function"
    },
    {
      "inputs": [],
      "name": "owner",
      "outputs": [
        {
          "internalType": "address",
          "name": "",
          "type": "address"
        }
      ],
      "stateMutability": "view",
      "type": "function"
    },
    {
      "inputs": [],
      "name": "primaryBenificiaryAddress",
      "outputs": [
        {
          "internalType": "address payable",
          "name": "",
          "type": "address"
        }
      ],
      "stateMutability": "view",
      "type": "function"
    },
    {
      "inputs": [],
      "name": "renounceOwnership",
      "outputs": [],
      "stateMutability": "nonpayable",
      "type": "function"
    },
    {
      "inputs": [
        {
          "internalType": "bool",
          "name": "_newValue",
          "type": "bool"
        }
      ],
      "name": "setIsSpinOpen",
      "outputs": [],
      "stateMutability": "nonpayable",
      "type": "function"
    },
    {
      "inputs": [],
      "name": "totalInvested",
      "outputs": [
        {
          "internalType": "uint256",
          "name": "",
          "type": "uint256"
        }
      ],
      "stateMutability": "view",
      "type": "function"
    },
    {
      "inputs": [],
      "name": "totalReferralReward",
      "outputs": [
        {
          "internalType": "uint256",
          "name": "",
          "type": "uint256"
        }
      ],
      "stateMutability": "view",
      "type": "function"
    },
    {
      "inputs": [],
      "name": "totalSpinCount",
      "outputs": [
        {
          "internalType": "uint256",
          "name": "",
          "type": "uint256"
        }
      ],
      "stateMutability": "view",
      "type": "function"
    },
    {
      "inputs": [],
      "name": "totalWithdrawal",
      "outputs": [
        {
          "internalType": "uint256",
          "name": "",
          "type": "uint256"
        }
      ],
      "stateMutability": "view",
      "type": "function"
    },
    {
      "inputs": [
        {
          "internalType": "address",
          "name": "newOwner",
          "type": "address"
        }
      ],
      "name": "transferOwnership",
      "outputs": [],
      "stateMutability": "nonpayable",
      "type": "function"
    },
    {
      "inputs": [],
      "name": "withdraw",
      "outputs": [],
      "stateMutability": "nonpayable",
      "type": "function"
    }
  ],
  "bytecode": "0x61012060405260326080908152601e60a052600f60c052600560e08190526101008190526200003191600291620001b0565b506009805460ff191690553480156200004957600080fd5b5060405162001942380380620019428339810160408190526200006c9162000235565b620000773362000160565b6001600160a01b038216620000de5760405162461bcd60e51b815260206004820152602260248201527f42656e696669636961727920616464726573732063616e6e6f74206265206e756044820152611b1b60f21b60648201526084015b60405180910390fd5b803b6200012e5760405162461bcd60e51b815260206004820152601660248201527f4e6f74206120636f6e74726163742061646472657373000000000000000000006044820152606401620000d5565b600380546001600160a01b039384166001600160a01b0319918216179091556001805492909316911617905562000274565b600080546001600160a01b038381166001600160a01b0319831681178455604051919092169283917f8be0079c531659141344cd1fd0a4f28419497f9722a3daafe3b4186f6b6457e09190a35050565b828054828255906000526020600020908101928215620001f3579160200282015b82811115620001f3578251829060ff16905591602001919060010190620001d1565b506200020192915062000205565b5090565b5b8082111562000201576000815560010162000206565b6001600160a01b03811681146200023257600080fd5b50565b600080604083850312156200024957600080fd5b825162000256816200021c565b602084015190925062000269816200021c565b809150509250929050565b6116be80620002846000396000f3fe60806040526004361061011f5760003560e01c80636f7bc9be116100a0578063bb4c7fd411610064578063bb4c7fd414610414578063bba57b3514610434578063d7e19c3814610454578063f2fde38b14610474578063f6dfdad11461049457600080fd5b80636f7bc9be146102da578063715018a61461038d5780638da5cb5b146103a25780639d787dd5146103d4578063a91f8803146103fe57600080fd5b80633ccfd60b116100e75780633ccfd60b1461023657806346a2d1171461024b5780635216aeec146102615780635fe5f8b6146102775780636b56ee02146102c457600080fd5b806303f9c79314610124578063040a772e1461013957806312065fe01461016c5780631b73ca5a1461017f5780633075c8d6146101b8575b600080fd5b6101376101323660046114cd565b6104b4565b005b34801561014557600080fd5b506101596101543660046114cd565b610557565b6040519081526020015b60405180910390f35b34801561017857600080fd5b5047610159565b34801561018b57600080fd5b5061015961019a3660046114cd565b6001600160a01b031660009081526008602052604090206007015490565b3480156101c457600080fd5b5061020e6101d33660046114cd565b6001600160a01b0316600090815260086020526040902060028101546003820154600483015460058401546006909401549294919390929091565b604080519586526020860194909452928401919091526060830152608082015260a001610163565b34801561024257600080fd5b50610137610733565b34801561025757600080fd5b5061015960075481565b34801561026d57600080fd5b5061015960045481565b34801561028357600080fd5b506102976102923660046114ef565b610915565b604080519687526020870195909552938501929092526060840152608083015260a082015260c001610163565b3480156102d057600080fd5b5061015960055481565b3480156102e657600080fd5b506103476102f53660046114cd565b600860208190526000918252604090912080546001820154928201546009830154600a840154600b850154600c860154600d909601546001600160a01b03958616979095169593949293919290919088565b604080516001600160a01b03998a168152989097166020890152958701949094526060860192909252608085015260a084015260c083015260e082015261010001610163565b34801561039957600080fd5b50610137610a3b565b3480156103ae57600080fd5b506000546001600160a01b03165b6040516001600160a01b039091168152602001610163565b3480156103e057600080fd5b506009546103ee9060ff1681565b6040519015158152602001610163565b34801561040a57600080fd5b5061015960065481565b34801561042057600080fd5b5061013761042f366004611519565b610a71565b34801561044057600080fd5b5061015961044f36600461153b565b610b1c565b34801561046057600080fd5b506003546103bc906001600160a01b031681565b34801561048057600080fd5b5061013761048f3660046114cd565b610b40565b3480156104a057600080fd5b5061020e6004546005546007546006544794565b60095460ff1661050b5760405162461bcd60e51b815260206004820152601960248201527f43616e6e6f74207370696e20617420746865206d6f6d656e740000000000000060448201526064015b60405180910390fd5b610516338234610bd8565b1561055457604080513381523460208201527faf2a53799989d65c435efb2fb5aa187b184295fa3ac08d532832f9d5b85c0350910160405180910390a15b50565b6001600160a01b038116600090815260086020526040812081805b600783015481101561072b5782600701818154811061059357610593611567565b90600052602060002090600602016005015483600d0154101561071957600061061d6103e86106178660070185815481106105d0576105d0611567565b9060005260206000209060060201600101548760070186815481106105f7576105f7611567565b90600052602060002090600602016002015461121c90919063ffffffff16565b906112a4565b9050600084600d015485600701848154811061063b5761063b611567565b9060005260206000209060060201600401541161065c5784600d0154610684565b84600701838154811061067157610671611567565b9060005260206000209060060201600401545b905060004286600701858154811061069e5761069e611567565b906000526020600020906006020160050154106106bb57426106e3565b8560070184815481106106d0576106d0611567565b9060005260206000209060060201600501545b9050808210156107155761071261070b620151806106176107048587611301565b879061121c565b869061135f565b94505b5050505b8061072381611593565b915050610572565b509392505050565b336000908152600860205260409020600d01544290610755906201518061135f565b11156107b85760405162461bcd60e51b815260206004820152602c60248201527f5769746864726177616c206c696d69742069732031207769746864726177616c60448201526b20696e20323420686f75727360a01b6064820152608401610502565b336000818152600860205260408120916107d190610557565b90506000811161081b5760405162461bcd60e51b81526020600482015260156024820152745573657220686173206e6f206469766964656e647360581b6044820152606401610502565b6611c37937e080008110156108725760405162461bcd60e51b815260206004820152601f60248201527f43616e6e6f74207769746864726177206c657373207468616e20302e303035006044820152606401610502565b478181101561087f578091505b60055461088c908361135f565b600555600983015461089e908361135f565b600984015542600d840155604051339083156108fc029084906000818181858888f193505050501580156108d6573d6000803e3d6000fd5b5060408051338152602081018490527fbace9fd79d5ea02ed8b43fa96af07e4e8f859a2f71ff878c748f5c22c5780284910160405180910390a1505050565b6001600160a01b03821660009081526008602052604081206007810180548392839283928392839290918990811061094f5761094f611567565b906000526020600020906006020160000154965080600701888154811061097857610978611567565b90600052602060002090600602016001015495508060070188815481106109a1576109a1611567565b90600052602060002090600602016002015494508060070188815481106109ca576109ca611567565b90600052602060002090600602016003015493508060070188815481106109f3576109f3611567565b9060005260206000209060060201600401549250806007018881548110610a1c57610a1c611567565b9060005260206000209060060201600501549150509295509295509295565b6000546001600160a01b03163314610a655760405162461bcd60e51b8152600401610502906115ae565b610a6f60006113be565b565b6000546001600160a01b03163314610a9b5760405162461bcd60e51b8152600401610502906115ae565b60095460ff1615158115151415610b095760405162461bcd60e51b815260206004820152602c60248201527f4e65772076616c75652063616e6e6f742062652073616d65207769746820707260448201526b6576696f75732076616c756560a01b6064820152608401610502565b6009805460ff1916911515919091179055565b6000610b3883610b326103e8610617888761121c565b9061121c565b949350505050565b6000546001600160a01b03163314610b6a5760405162461bcd60e51b8152600401610502906115ae565b6001600160a01b038116610bcf5760405162461bcd60e51b815260206004820152602660248201527f4f776e61626c653a206e6577206f776e657220697320746865207a65726f206160448201526564647265737360d01b6064820152608401610502565b610554816113be565b600067016345785d8a0000341015610c325760405162461bcd60e51b815260206004820152601e60248201527f4d696e696d756d20696e766573746d656e7420697320302e31204156415800006044820152606401610502565b836001600160a01b0316836001600160a01b03161415610ca35760405162461bcd60e51b815260206004820152602660248201527f52656620616464726573732063616e6e6f742062652073616d6520776974682060448201526531b0b63632b960d11b6064820152608401610502565b6001600160a01b0384166000908152600860205260409020600b0154606411610d0e5760405162461bcd60e51b815260206004820152601960248201527f43616e6e6f74207370696e206d6f7265207468616e20313030000000000000006044820152606401610502565b6000610d9e60056060600160009054906101000a90046001600160a01b03166001600160a01b0316635ec01e4d6040518163ffffffff1660e01b8152600401602060405180830381865afa158015610d6a573d6000803e3d6000fd5b505050506040513d601f19601f82011682018060405250810190610d8e91906115e3565b610d989190611612565b9061135f565b90506000610e01600a610b3260056004600160009054906101000a90046001600160a01b03166001600160a01b0316635ec01e4d6040518163ffffffff1660e01b8152600401602060405180830381865afa158015610d6a573d6000803e3d6000fd5b6001600160a01b03808816600090815260086020526040902080549293509116610e4c5780546001600160a01b0319166001600160a01b03881617815542600c8201819055600d8201555b60018101546001600160a01b0316610f70576001600160a01b0386166000908152600860208190526040909120015415610e9e576001810180546001600160a01b0319166001600160a01b0388161790555b60018101546001600160a01b031660005b6005811015610f6d576001600160a01b03821615610f56576001600160a01b0382166000908152600860205260409020610f02906001906002018360058110610efa57610efa611567565b01549061135f565b6001600160a01b03831660009081526008602052604090206002018260058110610f2e57610f2e611567565b01556001600160a01b0391821660009081526008602052604090206001015490911690610f5b565b610f6d565b80610f6581611593565b915050610eaf565b50505b60018101546001600160a01b0316156110b55760018101546001600160a01b031660005b60058110156110ae576001600160a01b03821615611097576000610fe46103e861061760028581548110610fca57610fca611567565b90600052602060002001548b61121c90919063ffffffff16565b6001600160a01b0384166000908152600860205260409020600a015490915061100d908261135f565b6001600160a01b0384166000908152600860205260409020600a0155600654611036908261135f565b6006556040516001600160a01b0384169082156108fc029083906000818181858888f1935050505015801561106f573d6000803e3d6000fd5b50506001600160a01b039182166000908152600860205260409020600101549091169061109c565b6110ae565b806110a681611593565b915050610f94565b5050611116565b60006110c86103e861061788606961121c565b6003546040519192506001600160a01b03169082156108fc029083906000818181858888f19350505050158015611103573d6000803e3d6000fd5b50600654611111908261135f565b600655505b600b81015461112690600161135f565b600b82015560075461113990600161135f565b6007556000611149868585610b1c565b905042600061116561115e876201518061121c565b429061135f565b6040805160c08101825288815260208082018981529282018c8152606083018881526080840188815260a0850187815260078c018054600181810183556000928352969091209651600690910290960195865595519385019390935590516002840155516003830155516004820155905160059091015560088501549091506111ee908961135f565b6008850155600454611200908961135f565b60045561120c8861140e565b5060019998505050505050505050565b60008261122b5750600061129e565b60006112378385611626565b9050826112448583611645565b1461129b5760405162461bcd60e51b815260206004820152602160248201527f536166654d6174683a206d756c7469706c69636174696f6e206f766572666c6f6044820152607760f81b6064820152608401610502565b90505b92915050565b60008082116112f55760405162461bcd60e51b815260206004820152601a60248201527f536166654d6174683a206469766973696f6e206279207a65726f0000000000006044820152606401610502565b6000610b388385611645565b6000828211156113535760405162461bcd60e51b815260206004820152601e60248201527f536166654d6174683a207375627472616374696f6e206f766572666c6f7700006044820152606401610502565b6000610b388385611659565b60008061136c8385611670565b90508381101561129b5760405162461bcd60e51b815260206004820152601b60248201527f536166654d6174683a206164646974696f6e206f766572666c6f7700000000006044820152606401610502565b600080546001600160a01b038381166001600160a01b0319831681178455604051919092169283917f8be0079c531659141344cd1fd0a4f28419497f9722a3daafe3b4186f6b6457e09190a35050565b6000811161145e5760405162461bcd60e51b815260206004820152601d60248201527f416d6f756e74206d7573742062652067726561746572207468616e20300000006044820152606401610502565b60006114716103e861061784606461121c565b6003546040519192506001600160a01b03169082156108fc029083906000818181858888f193505050501580156114ac573d6000803e3d6000fd5b505050565b80356001600160a01b03811681146114c857600080fd5b919050565b6000602082840312156114df57600080fd5b6114e8826114b1565b9392505050565b6000806040838503121561150257600080fd5b61150b836114b1565b946020939093013593505050565b60006020828403121561152b57600080fd5b8135801515811461129b57600080fd5b60008060006060848603121561155057600080fd5b505081359360208301359350604090920135919050565b634e487b7160e01b600052603260045260246000fd5b634e487b7160e01b600052601160045260246000fd5b60006000198214156115a7576115a761157d565b5060010190565b6020808252818101527f4f776e61626c653a2063616c6c6572206973206e6f7420746865206f776e6572604082015260600190565b6000602082840312156115f557600080fd5b5051919050565b634e487b7160e01b600052601260045260246000fd5b600082611621576116216115fc565b500690565b60008160001904831182151516156116405761164061157d565b500290565b600082611654576116546115fc565b500490565b60008282101561166b5761166b61157d565b500390565b600082198211156116835761168361157d565b50019056fea26469706673582212200a9babbd3045bb69db9c60c87a3bb4e46d8de98a0f6391cc08b8339e91f0b9ff64736f6c634300080b0033",
  "linkReferences": {},
  "deployedLinkReferences": {}
}