{
    "_format": "hh-sol-artifact-1",
    "contractName": "TheWheelOfReturns",
    "sourceName": "contracts/TheWheelOfReturns.sol",
    "abi": [
        {
            "inputs": [
                {
                    "internalType": "address payable",
                    "name": "_benificiaryAddress",
                    "type": "address"
                }
            ],
            "stateMutability": "nonpayable",
            "type": "constructor"
        },
        {
            "anonymous": false,
            "inputs": [
                {
                    "indexed": false,
                    "internalType": "address",
                    "name": "investor",
                    "type": "address"
                },
                {
                    "indexed": false,
                    "internalType": "uint256",
                    "name": "amount",
                    "type": "uint256"
                }
            ],
            "name": "OnInvest",
            "type": "event"
        },
        {
            "anonymous": false,
            "inputs": [
                {
                    "indexed": false,
                    "internalType": "address",
                    "name": "investor",
                    "type": "address"
                },
                {
                    "indexed": false,
                    "internalType": "uint256",
                    "name": "amount",
                    "type": "uint256"
                }
            ],
            "name": "OnWithdraw",
            "type": "event"
        },
        {
            "anonymous": false,
            "inputs": [
                {
                    "indexed": true,
                    "internalType": "address",
                    "name": "previousOwner",
                    "type": "address"
                },
                {
                    "indexed": true,
                    "internalType": "address",
                    "name": "newOwner",
                    "type": "address"
                }
            ],
            "name": "OwnershipTransferred",
            "type": "event"
        },
        {
            "inputs": [],
            "name": "benificiaryAddress",
            "outputs": [
                {
                    "internalType": "address payable",
                    "name": "",
                    "type": "address"
                }
            ],
            "stateMutability": "view",
            "type": "function"
        },
        {
            "inputs": [
                {
                    "internalType": "address payable",
                    "name": "newAddress",
                    "type": "address"
                }
            ],
            "name": "changeBenificiary",
            "outputs": [],
            "stateMutability": "nonpayable",
            "type": "function"
        },
        {
            "inputs": [],
            "name": "getBalance",
            "outputs": [
                {
                    "internalType": "uint256",
                    "name": "",
                    "type": "uint256"
                }
            ],
            "stateMutability": "view",
            "type": "function"
        },
        {
            "inputs": [],
            "name": "getContractInformation",
            "outputs": [
                {
                    "internalType": "uint256",
                    "name": "",
                    "type": "uint256"
                },
                {
                    "internalType": "uint256",
                    "name": "",
                    "type": "uint256"
                },
                {
                    "internalType": "uint256",
                    "name": "",
                    "type": "uint256"
                },
                {
                    "internalType": "uint256",
                    "name": "",
                    "type": "uint256"
                },
                {
                    "internalType": "uint256",
                    "name": "",
                    "type": "uint256"
                }
            ],
            "stateMutability": "view",
            "type": "function"
        },
        {
            "inputs": [
                {
                    "internalType": "address",
                    "name": "addr",
                    "type": "address"
                }
            ],
            "name": "getInvestorRefs",
            "outputs": [
                {
                    "internalType": "uint256",
                    "name": "",
                    "type": "uint256"
                },
                {
                    "internalType": "uint256",
                    "name": "",
                    "type": "uint256"
                },
                {
                    "internalType": "uint256",
                    "name": "",
                    "type": "uint256"
                },
                {
                    "internalType": "uint256",
                    "name": "",
                    "type": "uint256"
                },
                {
                    "internalType": "uint256",
                    "name": "",
                    "type": "uint256"
                }
            ],
            "stateMutability": "view",
            "type": "function"
        },
        {
            "inputs": [
                {
                    "internalType": "uint256",
                    "name": "amount",
                    "type": "uint256"
                },
                {
                    "internalType": "uint256",
                    "name": "maxDays",
                    "type": "uint256"
                },
                {
                    "internalType": "uint256",
                    "name": "perc",
                    "type": "uint256"
                }
            ],
            "name": "getTotalReturn",
            "outputs": [
                {
                    "internalType": "uint256",
                    "name": "",
                    "type": "uint256"
                }
            ],
            "stateMutability": "pure",
            "type": "function"
        },
        {
            "inputs": [
                {
                    "internalType": "address",
                    "name": "userAddress",
                    "type": "address"
                }
            ],
            "name": "getUserAmountOfSpins",
            "outputs": [
                {
                    "internalType": "uint256",
                    "name": "",
                    "type": "uint256"
                }
            ],
            "stateMutability": "view",
            "type": "function"
        },
        {
            "inputs": [
                {
                    "internalType": "address",
                    "name": "userAddress",
                    "type": "address"
                }
            ],
            "name": "getUserDividends",
            "outputs": [
                {
                    "internalType": "uint256",
                    "name": "",
                    "type": "uint256"
                }
            ],
            "stateMutability": "view",
            "type": "function"
        },
        {
            "inputs": [
                {
                    "internalType": "address",
                    "name": "userAddress",
                    "type": "address"
                },
                {
                    "internalType": "uint256",
                    "name": "index",
                    "type": "uint256"
                }
            ],
            "name": "getUserSpinInfo",
            "outputs": [
                {
                    "internalType": "uint256",
                    "name": "maxDays",
                    "type": "uint256"
                },
                {
                    "internalType": "uint256",
                    "name": "percent",
                    "type": "uint256"
                },
                {
                    "internalType": "uint256",
                    "name": "amount",
                    "type": "uint256"
                },
                {
                    "internalType": "uint256",
                    "name": "totalReturn",
                    "type": "uint256"
                },
                {
                    "internalType": "uint256",
                    "name": "start",
                    "type": "uint256"
                },
                {
                    "internalType": "uint256",
                    "name": "finish",
                    "type": "uint256"
                }
            ],
            "stateMutability": "view",
            "type": "function"
        },
        {
            "inputs": [
                {
                    "internalType": "address",
                    "name": "_ref",
                    "type": "address"
                }
            ],
            "name": "invest",
            "outputs": [],
            "stateMutability": "payable",
            "type": "function"
        },
        {
            "inputs": [
                {
                    "internalType": "address",
                    "name": "",
                    "type": "address"
                }
            ],
            "name": "investors",
            "outputs": [
                {
                    "internalType": "address",
                    "name": "addr",
                    "type": "address"
                },
                {
                    "internalType": "address",
                    "name": "ref",
                    "type": "address"
                },
                {
                    "internalType": "uint256",
                    "name": "totalInvestment",
                    "type": "uint256"
                },
                {
                    "internalType": "uint256",
                    "name": "totalWithdraw",
                    "type": "uint256"
                },
                {
                    "internalType": "uint256",
                    "name": "totalRef",
                    "type": "uint256"
                },
                {
                    "internalType": "uint256",
                    "name": "investmentCount",
                    "type": "uint256"
                },
                {
                    "internalType": "uint256",
                    "name": "investmentTime",
                    "type": "uint256"
                },
                {
                    "internalType": "uint256",
                    "name": "lastWithdrawDate",
                    "type": "uint256"
                }
            ],
            "stateMutability": "view",
            "type": "function"
        },
        {
            "inputs": [],
            "name": "isSpinOpen",
            "outputs": [
                {
                    "internalType": "bool",
                    "name": "",
                    "type": "bool"
                }
            ],
            "stateMutability": "view",
            "type": "function"
        },
        {
            "inputs": [],
            "name": "owner",
            "outputs": [
                {
                    "internalType": "address",
                    "name": "",
                    "type": "address"
                }
            ],
            "stateMutability": "view",
            "type": "function"
        },
        {
            "inputs": [],
            "name": "renounceOwnership",
            "outputs": [],
            "stateMutability": "nonpayable",
            "type": "function"
        },
        {
            "inputs": [
                {
                    "internalType": "bool",
                    "name": "_newValue",
                    "type": "bool"
                }
            ],
            "name": "setIsSpinOpen",
            "outputs": [],
            "stateMutability": "nonpayable",
            "type": "function"
        },
        {
            "inputs": [],
            "name": "totalInvested",
            "outputs": [
                {
                    "internalType": "uint256",
                    "name": "",
                    "type": "uint256"
                }
            ],
            "stateMutability": "view",
            "type": "function"
        },
        {
            "inputs": [],
            "name": "totalReferralReward",
            "outputs": [
                {
                    "internalType": "uint256",
                    "name": "",
                    "type": "uint256"
                }
            ],
            "stateMutability": "view",
            "type": "function"
        },
        {
            "inputs": [],
            "name": "totalSpinCount",
            "outputs": [
                {
                    "internalType": "uint256",
                    "name": "",
                    "type": "uint256"
                }
            ],
            "stateMutability": "view",
            "type": "function"
        },
        {
            "inputs": [],
            "name": "totalWithdrawal",
            "outputs": [
                {
                    "internalType": "uint256",
                    "name": "",
                    "type": "uint256"
                }
            ],
            "stateMutability": "view",
            "type": "function"
        },
        {
            "inputs": [
                {
                    "internalType": "address",
                    "name": "newOwner",
                    "type": "address"
                }
            ],
            "name": "transferOwnership",
            "outputs": [],
            "stateMutability": "nonpayable",
            "type": "function"
        },
        {
            "inputs": [],
            "name": "withdraw",
            "outputs": [],
            "stateMutability": "nonpayable",
            "type": "function"
        }
    ],
    "bytecode": "0x61012060405260326080908152601e60a052600f60c052600560e0819052610100819052620000319160019162000153565b506008805460ff191690553480156200004957600080fd5b50604051620018ab380380620018ab8339810160408190526200006c91620001bf565b620000773362000103565b6001600160a01b038116620000dd5760405162461bcd60e51b815260206004820152602260248201527f42656e696669636961727920616464726573732063616e6e6f74206265206e756044820152611b1b60f21b606482015260840160405180910390fd5b600280546001600160a01b0319166001600160a01b0392909216919091179055620001f1565b600080546001600160a01b038381166001600160a01b0319831681178455604051919092169283917f8be0079c531659141344cd1fd0a4f28419497f9722a3daafe3b4186f6b6457e09190a35050565b82805482825590600052602060002090810192821562000196579160200282015b8281111562000196578251829060ff1690559160200191906001019062000174565b50620001a4929150620001a8565b5090565b5b80821115620001a45760008155600101620001a9565b600060208284031215620001d257600080fd5b81516001600160a01b0381168114620001ea57600080fd5b9392505050565b6116aa80620002016000396000f3fe60806040526004361061012a5760003560e01c80636f7bc9be116100ab5780639d787dd51161006f5780639d787dd51461041e578063a91f880314610448578063bb4c7fd41461045e578063bba57b351461047e578063f2fde38b1461049e578063f6dfdad1146104be57600080fd5b80636f7bc9be146102e6578063711d424c14610397578063715018a6146103b75780638da5cb5b146103cc57806391f0b1e0146103fe57600080fd5b80633ccfd60b116100f25780633ccfd60b1461024257806346a2d117146102575780635216aeec1461026d5780635fe5f8b6146102835780636b56ee02146102d057600080fd5b806303f9c7931461012f578063040a772e1461014457806312065fe0146101775780631b73ca5a1461018a5780633075c8d6146101c4575b600080fd5b61014261013d3660046114d5565b6104de565b005b34801561015057600080fd5b5061016461015f3660046114d5565b610581565b6040519081526020015b60405180910390f35b34801561018357600080fd5b5047610164565b34801561019657600080fd5b506101646101a53660046114d5565b6001600160a01b03166000908152600760208190526040909120015490565b3480156101d057600080fd5b5061021a6101df3660046114d5565b6001600160a01b0316600090815260076020526040902060028101546003820154600483015460058401546006909401549294919390929091565b604080519586526020860194909452928401919091526060830152608082015260a00161016e565b34801561024e57600080fd5b5061014261075d565b34801561026357600080fd5b5061016460065481565b34801561027957600080fd5b5061016460035481565b34801561028f57600080fd5b506102a361029e3660046114f2565b6108e8565b604080519687526020870195909552938501929092526060840152608083015260a082015260c00161016e565b3480156102dc57600080fd5b5061016460045481565b3480156102f257600080fd5b506103516103013660046114d5565b60076020526000908152604090208054600182015460088301546009840154600a850154600b860154600c870154600d909701546001600160a01b03968716979590961695939492939192909188565b604080516001600160a01b03998a168152989097166020890152958701949094526060860192909252608085015260a084015260c083015260e08201526101000161016e565b3480156103a357600080fd5b506101426103b23660046114d5565b610a1b565b3480156103c357600080fd5b50610142610ab6565b3480156103d857600080fd5b506000546001600160a01b03165b6040516001600160a01b03909116815260200161016e565b34801561040a57600080fd5b506002546103e6906001600160a01b031681565b34801561042a57600080fd5b506008546104389060ff1681565b604051901515815260200161016e565b34801561045457600080fd5b5061016460055481565b34801561046a57600080fd5b5061014261047936600461151e565b610aec565b34801561048a57600080fd5b50610164610499366004611540565b610b97565b3480156104aa57600080fd5b506101426104b93660046114d5565b610bbb565b3480156104ca57600080fd5b5061021a6003546004546006546005544794565b60085460ff166105355760405162461bcd60e51b815260206004820152601960248201527f43616e6e6f74207370696e20617420746865206d6f6d656e740000000000000060448201526064015b60405180910390fd5b610540338234610c53565b1561057e57604080513381523460208201527faf2a53799989d65c435efb2fb5aa187b184295fa3ac08d532832f9d5b85c0350910160405180910390a15b50565b6001600160a01b038116600090815260076020526040812081805b6007830154811015610755578260070181815481106105bd576105bd61156c565b90600052602060002090600602016005015483600d015410156107435760006106476103e86106418660070185815481106105fa576105fa61156c565b9060005260206000209060060201600101548760070186815481106106215761062161156c565b9060005260206000209060060201600201546111c290919063ffffffff16565b9061124a565b9050600084600d01548560070184815481106106655761066561156c565b906000526020600020906006020160040154116106865784600d01546106ae565b84600701838154811061069b5761069b61156c565b9060005260206000209060060201600401545b90506000428660070185815481106106c8576106c861156c565b906000526020600020906006020160050154106106e5574261070d565b8560070184815481106106fa576106fa61156c565b9060005260206000209060060201600501545b90508082101561073f5761073c6107356201518061064161072e85876112a7565b87906111c2565b8690611305565b94505b5050505b8061074d81611598565b91505061059c565b509392505050565b336000908152600760205260409020600d0154429061077f9062015180611305565b11156107e25760405162461bcd60e51b815260206004820152602c60248201527f5769746864726177616c206c696d69742069732031207769746864726177616c60448201526b20696e20323420686f75727360a01b606482015260840161052c565b336000818152600760205260408120916107fb90610581565b9050600081116108455760405162461bcd60e51b81526020600482015260156024820152745573657220686173206e6f206469766964656e647360581b604482015260640161052c565b4781811015610852578091505b60045461085f9083611305565b60045560098301546108719083611305565b600984015542600d840155604051339083156108fc029084906000818181858888f193505050501580156108a9573d6000803e3d6000fd5b5060408051338152602081018490527fbace9fd79d5ea02ed8b43fa96af07e4e8f859a2f71ff878c748f5c22c5780284910160405180910390a1505050565b6000806000806000806000600760008a6001600160a01b03166001600160a01b03168152602001908152602001600020905080600701888154811061092f5761092f61156c565b90600052602060002090600602016000015496508060070188815481106109585761095861156c565b90600052602060002090600602016001015495508060070188815481106109815761098161156c565b90600052602060002090600602016002015494508060070188815481106109aa576109aa61156c565b90600052602060002090600602016003015493508060070188815481106109d3576109d361156c565b90600052602060002090600602016004015492508060070188815481106109fc576109fc61156c565b9060005260206000209060060201600501549150509295509295509295565b6000546001600160a01b03163314610a455760405162461bcd60e51b815260040161052c906115b3565b6001600160a01b038116610a945760405162461bcd60e51b81526020600482015260166024820152751059191c995cdcc818d85b9b9bdd081899481b9d5b1b60521b604482015260640161052c565b600280546001600160a01b0319166001600160a01b0392909216919091179055565b6000546001600160a01b03163314610ae05760405162461bcd60e51b815260040161052c906115b3565b610aea6000611364565b565b6000546001600160a01b03163314610b165760405162461bcd60e51b815260040161052c906115b3565b60085460ff1615158115151415610b845760405162461bcd60e51b815260206004820152602c60248201527f4e65772076616c75652063616e6e6f742062652073616d65207769746820707260448201526b6576696f75732076616c756560a01b606482015260840161052c565b6008805460ff1916911515919091179055565b6000610bb383610bad6103e861064188876111c2565b906111c2565b949350505050565b6000546001600160a01b03163314610be55760405162461bcd60e51b815260040161052c906115b3565b6001600160a01b038116610c4a5760405162461bcd60e51b815260206004820152602660248201527f4f776e61626c653a206e6577206f776e657220697320746865207a65726f206160448201526564647265737360d01b606482015260840161052c565b61057e81611364565b600067016345785d8a0000341015610cad5760405162461bcd60e51b815260206004820152601e60248201527f4d696e696d756d20696e766573746d656e7420697320302e3120415641580000604482015260640161052c565b836001600160a01b0316836001600160a01b03161415610d1e5760405162461bcd60e51b815260206004820152602660248201527f52656620616464726573732063616e6e6f742062652073616d6520776974682060448201526531b0b63632b960d11b606482015260840161052c565b6001600160a01b0384166000908152600760205260409020600b0154606411610d895760405162461bcd60e51b815260206004820152601960248201527f43616e6e6f74207370696e206d6f7265207468616e2031303000000000000000604482015260640161052c565b6000610d9560606113b4565b90506000610da8600a610bad60046113b4565b6001600160a01b03808816600090815260076020526040902080549293509116610df35780546001600160a01b0319166001600160a01b03881617815542600c8201819055600d8201555b60018101546001600160a01b0316610f16576001600160a01b03861660009081526007602052604090206008015415610e44576001810180546001600160a01b0319166001600160a01b0388161790555b60018101546001600160a01b031660005b6005811015610f13576001600160a01b03821615610efc576001600160a01b0382166000908152600760205260409020610ea8906001906002018360058110610ea057610ea061156c565b015490611305565b6001600160a01b03831660009081526007602052604090206002018260058110610ed457610ed461156c565b01556001600160a01b0391821660009081526007602052604090206001015490911690610f01565b610f13565b80610f0b81611598565b915050610e55565b50505b60018101546001600160a01b03161561105b5760018101546001600160a01b031660005b6005811015611054576001600160a01b0382161561103d576000610f8a6103e861064160018581548110610f7057610f7061156c565b90600052602060002001548b6111c290919063ffffffff16565b6001600160a01b0384166000908152600760205260409020600a0154909150610fb39082611305565b6001600160a01b0384166000908152600760205260409020600a0155600554610fdc9082611305565b6005556040516001600160a01b0384169082156108fc029083906000818181858888f19350505050158015611015573d6000803e3d6000fd5b50506001600160a01b0391821660009081526007602052604090206001015490911690611042565b611054565b8061104c81611598565b915050610f3a565b50506110bc565b600061106e6103e86106418860696111c2565b6002546040519192506001600160a01b03169082156108fc029083906000818181858888f193505050501580156110a9573d6000803e3d6000fd5b506005546110b79082611305565b600555505b600b8101546110cc906001611305565b600b8201556006546110df906001611305565b60065560006110ef868585610b97565b905042600061110b61110487620151806111c2565b4290611305565b6040805160c08101825288815260208082018981529282018c8152606083018881526080840188815260a0850187815260078c018054600181810183556000928352969091209651600690910290960195865595519385019390935590516002840155516003830155516004820155905160059091015560088501549091506111949089611305565b60088501556003546111a69089611305565b6003556111b28861141d565b5060019998505050505050505050565b6000826111d157506000611244565b60006111dd83856115e8565b9050826111ea858361161d565b146112415760405162461bcd60e51b815260206004820152602160248201527f536166654d6174683a206d756c7469706c69636174696f6e206f766572666c6f6044820152607760f81b606482015260840161052c565b90505b92915050565b600080821161129b5760405162461bcd60e51b815260206004820152601a60248201527f536166654d6174683a206469766973696f6e206279207a65726f000000000000604482015260640161052c565b6000610bb3838561161d565b6000828211156112f95760405162461bcd60e51b815260206004820152601e60248201527f536166654d6174683a207375627472616374696f6e206f766572666c6f770000604482015260640161052c565b6000610bb38385611631565b6000806113128385611648565b9050838110156112415760405162461bcd60e51b815260206004820152601b60248201527f536166654d6174683a206164646974696f6e206f766572666c6f770000000000604482015260640161052c565b600080546001600160a01b038381166001600160a01b0319831681178455604051919092169283917f8be0079c531659141344cd1fd0a4f28419497f9722a3daafe3b4186f6b6457e09190a35050565b6000814244336040516020016113ef93929190928352602083019190915260601b6bffffffffffffffffffffffff1916604082015260540190565b6040516020818303038152906040528051906020012060001c6114129190611660565b611244906005611648565b6000811161146d5760405162461bcd60e51b815260206004820152601d60248201527f416d6f756e74206d7573742062652067726561746572207468616e2030000000604482015260640161052c565b60006114806103e86106418460646111c2565b6002546040519192506001600160a01b03169082156108fc029083906000818181858888f193505050501580156114bb573d6000803e3d6000fd5b505050565b6001600160a01b038116811461057e57600080fd5b6000602082840312156114e757600080fd5b8135611241816114c0565b6000806040838503121561150557600080fd5b8235611510816114c0565b946020939093013593505050565b60006020828403121561153057600080fd5b8135801515811461124157600080fd5b60008060006060848603121561155557600080fd5b505081359360208301359350604090920135919050565b634e487b7160e01b600052603260045260246000fd5b634e487b7160e01b600052601160045260246000fd5b60006000198214156115ac576115ac611582565b5060010190565b6020808252818101527f4f776e61626c653a2063616c6c6572206973206e6f7420746865206f776e6572604082015260600190565b600081600019048311821515161561160257611602611582565b500290565b634e487b7160e01b600052601260045260246000fd5b60008261162c5761162c611607565b500490565b60008282101561164357611643611582565b500390565b6000821982111561165b5761165b611582565b500190565b60008261166f5761166f611607565b50069056fea264697066735822122026566d9ec03bad67b691430712320df096aa1d8034639ac7be1013e818b81c8a64736f6c634300080b0033",
    "linkReferences": {},
    "deployedLinkReferences": {}
}